:1070000055C00000B0C00000AEC00000ACC0000021
:10701000AAC00000A8C00000A6C00000A4C00000D4
:10702000A2C00000A0C000005FC300009CC0000020
:107030009AC0000098C0000096C0000094C00000F4
:1070400092C0000090C000008EC000008CC0000004
:107050008AC0000088C0000086C0000084C0000014
:1070600082C0000051C400003CC400007CC000008D
:107070007AC0000078C0000076C0000074C0000034
:1070800072C0000070C000006EC000006CC0000044
:107090006AC0000068C0000066C0000064C0000054
:1070A00062C0000060C000005EC0000011241FBE6E
:1070B000CFEFDAE0DEBFCDBF2091FF0A1092FF0ACA
:1070C000909100801092008084B714BE0FB6F8949F
:1070D000A895309160003861309360001092600094
:1070E0000FBE5E9A2C9AF0E0E0E0459154914F3F3C
:1070F0005F4F21F181FF18C0273701F19737F1F079
:1071000087E78093FF0A809300808FE79FE422E166
:10711000815090402040E1F700C000001092FF0A2B
:10712000109200804CD10AC080FF02C048D106C036
:1071300083FF04C0273711F09737C1F713E0A2E8A7
:10714000B2E0E4EDFEE702C005900D92AC31B1076C
:10715000D9F723E0ACE1B3E001C01D92AD32B20734
:10716000E1F7DBD3B5C64CCF8091240387FF11C074
:107170008091E80082FF06C08091E8008B778093C1
:10718000E80003C08BB58111F3CF08958BB5882338
:10719000E1F38091E80080FFF9CF8091E8008E77DD
:1071A000EECF8093E900EBEEF0E080818160808398
:1071B000EDEEF0E010826093EC0040838091EE00F1
:1071C000881F8827881F0895FC0180912A039091C9
:1071D0002B0386179707A0F06115710529F490918C
:1071E000E8009E779093E80090E06115710551F4F6
:1071F000911108C08091E80082FF34C080E00895BA
:10720000BC01F2CF8BB58823C1F18530C1F18091EB
:10721000E80083FD30C08091E80082FDEBCF8091D3
:10722000E80080FFE2CF2091F3008091F200322F3E
:10723000282F6115710519F02830310558F091E0BB
:107240002830310509F090E02091E8002E77209356
:10725000E800CBCF81918093F100615071092F5FDD
:107260003F4FE7CF8BB5882341F0853041F08091C7
:10727000E80083FFBFCF81E0089582E0089583E0B6
:107280000895CF935B9A1092C9001092C800109293
:10729000CA001EBA10922303109222031ABC209136
:1072A000830230918402409185025091860221151B
:1072B00031054105510529F4109221035B98CF91C6
:1072C0000895211581EE38074105510521F481E02B
:1072D00080932103F3CF82E0809321038091880281
:1072E000C0E3813021F0C0E2823009F0C0E080913B
:1072F0008702823009F4C86080918902873039F1B1
:10730000883039F1863009F4C260CA01B901969516
:10731000879577956795605C7D4B804F9F4FB6D57D
:107320002150310920FD04C0211580E1380798F073
:107330003695279580E03093CD002093CC00C09304
:10734000CA008093C80088E98093C900B7CFC460A1
:10735000DCCFC660DACF82E0EECF93E09093E90015
:107360009BB5992391F09091E80090FFF9CF80931D
:10737000F10081E0860D8F3310F4682E0895612CA2
:107380008091E8008E778093E800089584E08093F0
:10739000E9008091E80085FF03C08091F100089525
:1073A0008091E8008B778093E8008BB5882329F0E3
:1073B0008091E80082FFF9CFECCF80E00895F0E003
:1073C000E0E009947F928F929F92AF92BF92CF920A
:1073D000DF92EF92FF920F931F93CF93DF93612C75
:1073E000D5DFC82F853459F5109282028DE0B5DFC4
:1073F000662079F083E08093E9008BB5882389F0DB
:107400008091E80080FFF9CF8091E8008E7780932B
:10741000E80084E08093E9008091E8008B77809316
:10742000E800DF91CF911F910F91FF90EF90DF90D7
:10743000CF90BF90AF909F908F907F90089588E8F5
:107440008C0F823010F0C43511F4A0DFCFCFC035DF
:1074500069F2CC3459F2C43721F484E47EDF80E051
:10746000C6CF89E5C13609F4C2CFC134D1F48EDF6D
:10747000C82F8CDF2C2F30E0322F2227330F90E0E3
:10748000880F991F822B932B092E000CAA0BBB0B84
:1074900080931D0390931E03A0931F03B0932003BA
:1074A000A5CF83E5C03709F4A2CFC33549F4C4E1C1
:1074B000D3E0899152DF23E0CB31D207D1F798CFC7
:1074C000C63521F481E349DF80E391CFC33731F43E
:1074D00087E843DF85E941DF8EE189CFC536B9F41E
:1074E000F0E0E0E083E095E080935700E89507B690
:1074F00000FCFDCF90935700E89507B600FCFDCF48
:10750000E058FF4FE11520E7F20771F76FCF89E0F0
:10751000E1E0F0E0C23779F089E0F0E0E0E0C63485
:1075200051F089E0E3E0F0E0CE3429F0C13539F4E0
:1075300089E0E2E0F0E080935700849158CFC236B2
:1075400031F489E50ADF80E008DF80E850CFC234FB
:1075500019F0C73609F0C4C019DF082F10E0102F4A
:10756000002714DF082B12DFD82F8BEB8D0F823012
:1075700010F08FE33CCFC73609F042C081E1809321
:107580005700E895C0E0BB24B3940150110908F4FA
:107590002FCFC0901D03D0901E03E0901F03F090EA
:1075A0002003D634B9F4EC2FF0E0EC29FD298491C6
:1075B000D4DECC2369F082E0C80ED11CE11CF11CA2
:1075C000C0921D03D0921E03E0921F03F09220038D
:1075D000CB25DBCFD701C601B695A79597958795A3
:1075E0003FD4BBDEE2E0CE0ED11CE11CF11CC09208
:1075F0001D03D0921E03E0921F03F0922003C5CF1B
:1076000080901D0390901E03A0901F03B090200354
:10761000D63441F483E0F40180935700E89507B62F
:1076200000FCFDCF712CC0E026C0D63409F035C077
:10763000CC2381F1C0901D03D0901E03E0901F0366
:10764000F0902003A3DE982F872D21E0F6010C0196
:1076500020935700E895112482E0C80ED11CE11C4C
:10766000F11CC0921D03D0921E03E0921F03F09202
:107670002003E1E0CE2701501109B8F6D63409F015
:10768000B5CE85E0F40180935700E89507B600FC7D
:10769000FDCFACCE7BDE782EECCF78DE682F8091EC
:1076A0001D0390911E03A0911F03B0912003B69576
:1076B000A79597958795DCD380911D0390911E0324
:1076C000A0911F03B09120030296A11DB11D8093CC
:1076D0001D0390931E03A0931F03B0932003CBCFF1
:1076E000CB3109F485CE45CF1F920F920FB60F9282
:1076F00011242F933F934F935F936F937F938F93B7
:107700009F93AF93BF93EF93FF938091DA0080FF35
:1077100015C08091D80080FF11C08091DA008E7F63
:107720008093DA008091D90019BC80FF7EC082E08E
:1077300089BD09B400FEFDCF81E08BBD8091E100E1
:1077400080FF16C08091E20080FF12C08091E200AD
:107750008E7F8093E2008091E20080618093E2005E
:107760008091D80080628093D80019BC85E08BBDE1
:107770008091E10084FF24C08091E20084FF20C05A
:1077800019BC82E089BD09B400FEFDCF8091D8000C
:107790008F7D8093D8008091E1008F7E8093E100FF
:1077A0008091E2008F7E8093E2008091E200816010
:1077B0008093E20080912C038823C9F184E08BBD83
:1077C0008091E10083FF20C08091E20083FF1CC014
:1077D0008091E100877F8093E10082E08BBD109271
:1077E0002C038091E1008E7F8093E1008091E20084
:1077F0008E7F8093E2008091E20080618093E200BE
:1078000042E060E080E0CDDCFF91EF91BF91AF916D
:107810009F918F917F916F915F914F913F912F91A8
:107820000F900FBE0F901F9018951BBC87CF8091B3
:10783000E30087FD02C081E0C2CF83E0C0CF07B67E
:1078400000FCFDCFF999FECF809599E0E1E0F0E0F2
:10785000082E90935700E895089589E0E1E0F0E064
:10786000809357008491089529E0FC0120935700EC
:107870008491089521E2FC0120935700849108959A
:1078800007B600FCFDCFF999FECF21E0FB010A010C
:1078900020935700E8951124089507B600FCFDCF0A
:1078A000F999FECF25E0FB0120935700E89507B634
:1078B00000FCFDCF81E180935700E895089507B65D
:1078C00000FCFDCFF999FECF23E0FB012093570088
:1078D000E89507B600FCFDCF81E180935700E8955D
:1078E00008952F01EEB3F2E031903092CE00EEBB5E
:1078F000F798F2012EB23090230323101895E8E98F
:10790000E093C900F20118953090CE002F01EAB53E
:10791000F1E03192EABDF201189580E890E00FB6EF
:10792000F89480936100909361000FBE91E095BF41
:1079300082E085BF8091D8008F7E8093D8008091AF
:10794000D70081608093D70014E012BF90931C038E
:107950008091D8008E7F8093D8001092E200109220
:10796000DA001092E1008091D8008F778093D800E0
:107970008091D80080688093D8008091D8008F7D56
:107980008093D80019BC1BBC10922C038091E0009E
:1079900084608093E0008091D80081608093D8005B
:1079A00042E060E080E0FDDB8091E1008E7F80932B
:1079B000E1008091E20081608093E2008091E2002A
:1079C00088608093E2008091E0008E7F8093E000E9
:1079D0008091D80080618093D80015BD80E48AB979
:1079E000249A769A769A789410E000E0FBB410928C
:1079F000E9008091E80083FF48C0E4E2F3E0809171
:107A0000F100819383E0EC32F807C9F780912403F9
:107A1000982F9F779132B1F490912503913209F01C
:107A200047C0813A79F48091E800877F8093E8002D
:107A300067E070E083E892E0C7DB8091E8008B7735
:107A40008093E8008091E80083FF11C080912403B7
:107A500090912503953009F405C108F07BC0913061
:107A600009F4C7C008F4A5C0933009F4C2C08091DE
:107A7000E80083FF0AC08091E800877F8093E800D8
:107A80008091EB0080628093EB008BB5843009F429
:107A900059C194E0F912AACF109283021092840285
:107AA0001092850210928602ECDB5E9A2C9A9CCF93
:107AB0009032E1F5813231F68091E800877F809342
:107AC000E800E3E8F2E087E0811110C08BB588237D
:107AD00031F0853021F08091E80080FFF7CF809170
:107AE000E8008E778093E800CCDBACCF9BB5992380
:107AF000B1F39530A1F39091E80093FDF0CF909110
:107B0000E80092FFE1CF2091F3009091F200322F34
:107B1000292F232B29F09091F1009193815099F70F
:107B20009091E8009B779093E800CECF923209F0D5
:107B300089CF813209F086CF8091E800877F8093DA
:107B4000E80012DB8091260380FF02C0769A7ACF8C
:107B5000769878CF983009F4C1C0993009F4CBC039
:107B6000963009F084CF8058823008F080CF809121
:107B7000260390912703C92F90E0D92FC230D10559
:107B800009F49DC0C330D10509F48DC062E170E0F5
:107B900082E093E0219709F06ACF2091E800277FE7
:107BA0002093E80011DB8091E8008B778093E80058
:107BB0005ECF8038E1F0823809F059CF80912803F8
:107BC0008F708093E9008091EB0085FB882780F916
:107BD0001092E9009091E800977F9093E8008093DD
:107BE000F1001092F1008091E8008E7724C080E0CF
:107BF000F1CF282F2D7F09F03ACF823009F037CF0F
:107C000080912603811112C0809128038F7009F49E
:107C10002ECF8093E9002091EB0020FF07C0933026
:107C200071F48091EB0080628093EB001092E90088
:107C30008091E800877F8093E80096DA18CF9091D2
:107C4000EB0090619093EB0021E030E001C0220F47
:107C50008A95EAF72093EA001092EA008091EB00FF
:107C60008860E2CF811103CF80912603E82EE8944B
:107C7000E7F88091E30080788E298093E30080917B
:107C8000E800877F8093E8006FDA8091E80080FF4A
:107C9000FCCF8091E30080688093E30082E0E110F4
:107CA00083E08BBDE4CE882379F0813091F082307F
:107CB00009F0DDCE60E270E08AE892E06ECF6EE31C
:107CC00070E084EC92E069CF64E070E08CEA92E0CE
:107CD00064CF62E170E080EB92E05FCF803809F022
:107CE000C6CE8091E800877F8093E80080912C03C6
:107CF0008093F10078CF8111BACEE090260381E025
:107D00008E1508F4B4CE8091E800877F8093E80058
:107D1000E0922C0329DAEE2011F084E005C0809176
:107D2000E30087FDFACF81E08BBD42E061EC82E0A9
:107D300038DA46E361E883E034DA42E260E884E07E
:107D400030DA95CE90918202911116C08FEC97E0B7
:107D50000197F1F700C000008091E00081608093FE
:107D6000E00088E19CE00FB6F894A895809360004D
:107D70000FBE90936000FFCF8093E9008091E800F0
:107D800082FF22C08091F3008091F200811105C032
:107D90009091E8009B779093E800909121039130B7
:107DA000A9F481110FDBA89B21CE81E085BB0023C4
:107DB00019F0015009F45E9A112309F417CE1150FD
:107DC00009F014CE2C9A12CE80E0E7CF923059F70A
:107DD000909123032EB3921B90959F778823C1F037
:107DE0009817B0F0F2E0E09123039091F1009193A5
:107DF000EF778150D1F78091E8008B778093E8008E
:107E0000E093230388EB8093C9002C9813E002C011
:107E10009F37D9F78AB590912203891B09F4C3CF04
:107E2000A89902C08F33C8F093E09093E900909135
:107E3000E80090FF12C08F3308F08FE3E091220337
:107E4000F1E091919093F1008150D1F78091E80099
:107E50008E778093E800E09322035E9803E0A3CF3F
:107E6000F999FECF92BD81BDF89A992780B5089502
:107E7000262FF999FECF1FBA92BD81BD20BD0FB646
:107E8000F894FA9AF99A0FBE01960895A1E21A2E73
:107E9000AA1BBB1BFD010DC0AA1FBB1FEE1FFF1FAE
:107EA000A217B307E407F50720F0A21BB30BE40BFE
:107EB000F50B661F771F881F991F1A9469F7609545
:107EC0007095809590959B01AC01BD01CF010895FF
:047ED000F894FFCF54
:107ED4000100000000000008200348006F006F004C
:107EE40064004C006F0061006400650072003200A1
:107EF400200055006E006F00000004030904120303
:107F04004E00690063006F0048006F006F0064005A
:107F1400000009023E000201008032090400000151
:107F240002020100052400100104240202052406B3
:107F34000001070582030800FF09040100020A008A
:107F44000000070504022000010705830240000128
:107F5400120110010200000841234300050201023E
:0A7F64000001484C322E302E35008B
:107FA0008ECC7BCC6DCC66CC5FCC57CC48CC0895C6
:087FB000089508950895089555
:107FE000DFCFDFCFDFCFDFCFDFCFDFCFDFCFDFCF21
:087FF000DFCFDFCFDFCFDFCFD1
:087FF8000070000000DFFBDC5B
:040000030000700089
:00000001FF
